{
  "contractName": "Identity",
  "abi": [
    {
      "constant": true,
      "inputs": [
        {
          "name": "",
          "type": "address"
        }
      ],
      "name": "issuers",
      "outputs": [
        {
          "name": "issuerType",
          "type": "string"
        },
        {
          "name": "issuerDescription",
          "type": "string"
        },
        {
          "name": "active",
          "type": "bool"
        }
      ],
      "payable": false,
      "stateMutability": "view",
      "type": "function"
    },
    {
      "constant": true,
      "inputs": [
        {
          "name": "",
          "type": "address"
        }
      ],
      "name": "users",
      "outputs": [
        {
          "name": "firstName",
          "type": "string"
        },
        {
          "name": "lastName",
          "type": "string"
        },
        {
          "name": "password",
          "type": "string"
        },
        {
          "name": "active",
          "type": "bool"
        }
      ],
      "payable": false,
      "stateMutability": "view",
      "type": "function"
    },
    {
      "constant": true,
      "inputs": [
        {
          "name": "",
          "type": "address"
        }
      ],
      "name": "identities",
      "outputs": [
        {
          "name": "active",
          "type": "bool"
        },
        {
          "name": "idNumber",
          "type": "string"
        },
        {
          "name": "idType",
          "type": "string"
        }
      ],
      "payable": false,
      "stateMutability": "view",
      "type": "function"
    },
    {
      "constant": false,
      "inputs": [
        {
          "name": "_firstName",
          "type": "string"
        },
        {
          "name": "_lastName",
          "type": "string"
        },
        {
          "name": "_password",
          "type": "string"
        }
      ],
      "name": "registerUser",
      "outputs": [
        {
          "name": "_bool",
          "type": "bool"
        }
      ],
      "payable": false,
      "stateMutability": "nonpayable",
      "type": "function"
    },
    {
      "constant": false,
      "inputs": [
        {
          "name": "_issuerType",
          "type": "string"
        },
        {
          "name": "_issuerDescription",
          "type": "string"
        }
      ],
      "name": "registerIssuer",
      "outputs": [
        {
          "name": "_bool",
          "type": "bool"
        }
      ],
      "payable": false,
      "stateMutability": "nonpayable",
      "type": "function"
    },
    {
      "constant": false,
      "inputs": [
        {
          "name": "_idNumber",
          "type": "string"
        },
        {
          "name": "_idType",
          "type": "string"
        }
      ],
      "name": "registerUserIdentity",
      "outputs": [
        {
          "name": "_bool",
          "type": "bool"
        }
      ],
      "payable": false,
      "stateMutability": "nonpayable",
      "type": "function"
    }
  ],
  "bytecode": "0x608060405234801561001057600080fd5b50610f39806100206000396000f300608060405260043610610078576000357c0100000000000000000000000000000000000000000000000000000000900463ffffffff1680631e286ca01461007d57806338a7543e14610144578063a87430ba14610277578063c7f13ff514610416578063d637dcfa146104dd578063f653b81e146105ea575b600080fd5b34801561008957600080fd5b5061012a600480360381019080803590602001908201803590602001908080601f0160208091040260200160405190810160405280939291908181526020018383808284378201915050505050509192919290803590602001908201803590602001908080601f016020809104026020016040519081016040528093929190818152602001838380828437820191505050505050919291929050505061071d565b604051808215151515815260200191505060405180910390f35b34801561015057600080fd5b50610185600480360381019080803573ffffffffffffffffffffffffffffffffffffffff1690602001909291905050506107e3565b60405180806020018060200184151515158152602001838103835286818151815260200191508051906020019080838360005b838110156101d35780820151818401526020810190506101b8565b50505050905090810190601f1680156102005780820380516001836020036101000a031916815260200191505b50838103825285818151815260200191508051906020019080838360005b8381101561023957808201518184015260208101905061021e565b50505050905090810190601f1680156102665780820380516001836020036101000a031916815260200191505b509550505050505060405180910390f35b34801561028357600080fd5b506102b8600480360381019080803573ffffffffffffffffffffffffffffffffffffffff16906020019092919050505061094a565b6040518080602001806020018060200185151515158152602001848103845288818151815260200191508051906020019080838360005b8381101561030a5780820151818401526020810190506102ef565b50505050905090810190601f1680156103375780820380516001836020036101000a031916815260200191505b50848103835287818151815260200191508051906020019080838360005b83811015610370578082015181840152602081019050610355565b50505050905090810190601f16801561039d5780820380516001836020036101000a031916815260200191505b50848103825286818151815260200191508051906020019080838360005b838110156103d65780820151818401526020810190506103bb565b50505050905090810190601f1680156104035780820380516001836020036101000a031916815260200191505b5097505050505050505060405180910390f35b34801561042257600080fd5b506104c3600480360381019080803590602001908201803590602001908080601f0160208091040260200160405190810160405280939291908181526020018383808284378201915050505050509192919290803590602001908201803590602001908080601f0160208091040260200160405190810160405280939291908181526020018383808284378201915050505050509192919290505050610b4f565b604051808215151515815260200191505060405180910390f35b3480156104e957600080fd5b506105d0600480360381019080803590602001908201803590602001908080601f0160208091040260200160405190810160405280939291908181526020018383808284378201915050505050509192919290803590602001908201803590602001908080601f0160208091040260200160405190810160405280939291908181526020018383808284378201915050505050509192919290803590602001908201803590602001908080601f0160208091040260200160405190810160405280939291908181526020018383808284378201915050505050509192919290505050610c16565b604051808215151515815260200191505060405180910390f35b3480156105f657600080fd5b5061062b600480360381019080803573ffffffffffffffffffffffffffffffffffffffff169060200190929190505050610d01565b60405180841515151581526020018060200180602001838103835285818151815260200191508051906020019080838360005b8381101561067957808201518184015260208101905061065e565b50505050905090810190601f1680156106a65780820380516001836020036101000a031916815260200191505b50838103825284818151815260200191508051906020019080838360005b838110156106df5780820151818401526020810190506106c4565b50505050905090810190601f16801561070c5780820380516001836020036101000a031916815260200191505b509550505050505060405180910390f35b6000606060405190810160405280600115158152602001848152602001838152506000803373ffffffffffffffffffffffffffffffffffffffff1673ffffffffffffffffffffffffffffffffffffffff16815260200190815260200160002060008201518160000160006101000a81548160ff02191690831515021790555060208201518160010190805190602001906107b8929190610e68565b5060408201518160020190805190602001906107d5929190610e68565b509050506001905092915050565b6002602052806000526040600020600091509050806000018054600181600116156101000203166002900480601f01602080910402602001604051908101604052809291908181526020018280546001816001161561010002031660029004801561088f5780601f106108645761010080835404028352916020019161088f565b820191906000526020600020905b81548152906001019060200180831161087257829003601f168201915b505050505090806001018054600181600116156101000203166002900480601f01602080910402602001604051908101604052809291908181526020018280546001816001161561010002031660029004801561092d5780601f106109025761010080835404028352916020019161092d565b820191906000526020600020905b81548152906001019060200180831161091057829003601f168201915b5050505050908060020160009054906101000a900460ff16905083565b6001602052806000526040600020600091509050806000018054600181600116156101000203166002900480601f0160208091040260200160405190810160405280929190818152602001828054600181600116156101000203166002900480156109f65780601f106109cb576101008083540402835291602001916109f6565b820191906000526020600020905b8154815290600101906020018083116109d957829003601f168201915b505050505090806001018054600181600116156101000203166002900480601f016020809104026020016040519081016040528092919081815260200182805460018160011615610100020316600290048015610a945780601f10610a6957610100808354040283529160200191610a94565b820191906000526020600020905b815481529060010190602001808311610a7757829003601f168201915b505050505090806002018054600181600116156101000203166002900480601f016020809104026020016040519081016040528092919081815260200182805460018160011615610100020316600290048015610b325780601f10610b0757610100808354040283529160200191610b32565b820191906000526020600020905b815481529060010190602001808311610b1557829003601f168201915b5050505050908060030160009054906101000a900460ff16905084565b600060606040519081016040528084815260200183815260200160011515815250600260003373ffffffffffffffffffffffffffffffffffffffff1673ffffffffffffffffffffffffffffffffffffffff1681526020019081526020016000206000820151816000019080519060200190610bcb929190610e68565b506020820151816001019080519060200190610be8929190610e68565b5060408201518160020160006101000a81548160ff0219169083151502179055509050506001905092915050565b600060806040519081016040528085815260200184815260200183815260200160011515815250600160003373ffffffffffffffffffffffffffffffffffffffff1673ffffffffffffffffffffffffffffffffffffffff1681526020019081526020016000206000820151816000019080519060200190610c98929190610e68565b506020820151816001019080519060200190610cb5929190610e68565b506040820151816002019080519060200190610cd2929190610e68565b5060608201518160030160006101000a81548160ff021916908315150217905550905050600190509392505050565b60006020528060005260406000206000915090508060000160009054906101000a900460ff1690806001018054600181600116156101000203166002900480601f016020809104026020016040519081016040528092919081815260200182805460018160011615610100020316600290048015610dc05780601f10610d9557610100808354040283529160200191610dc0565b820191906000526020600020905b815481529060010190602001808311610da357829003601f168201915b505050505090806002018054600181600116156101000203166002900480601f016020809104026020016040519081016040528092919081815260200182805460018160011615610100020316600290048015610e5e5780601f10610e3357610100808354040283529160200191610e5e565b820191906000526020600020905b815481529060010190602001808311610e4157829003601f168201915b5050505050905083565b828054600181600116156101000203166002900490600052602060002090601f016020900481019282601f10610ea957805160ff1916838001178555610ed7565b82800160010185558215610ed7579182015b82811115610ed6578251825591602001919060010190610ebb565b5b509050610ee49190610ee8565b5090565b610f0a91905b80821115610f06576000816000905550600101610eee565b5090565b905600a165627a7a72305820441fe651b958674f0d9ccaf8852d271a732d61261301171620c288a37dc872a70029",
  "source": "pragma solidity ^0.4.18;\r\n\r\nimport \"./ConvertLib.sol\";\r\n\r\ncontract Identity {\r\n    \r\n    struct identity {\r\nbool active;\r\nstring idNumber;\r\nstring idType;\r\n    }\r\n    \r\n    mapping(address => identity) public identities;\r\n    \r\n// Register User with FirstName, LastName and password    \r\n    struct userIdentity {\r\nstring firstName;\r\nstring lastName;\r\nstring password;\r\nbool active;\r\n    }\r\n    \r\n        mapping(address => userIdentity) public users;\r\n\r\nfunction registerUser(string _firstName, string _lastName, string _password) public returns (bool _bool){\r\n       \r\n        users[ msg.sender ] = userIdentity({\r\nfirstName: _firstName,\r\nlastName: _lastName,\r\npassword: _password,\r\n            active: true\r\n        });\r\n        return true;\r\n    }\r\n\r\n// Register Issuer with issuerType,issuerDescription    \r\n    struct issuerIdentity {\r\nstring issuerType;\r\nstring issuerDescription;\r\nbool active;\r\n    }    \r\n    \r\n        mapping(address => issuerIdentity) public issuers;\r\n\r\nfunction registerIssuer(string _issuerType, string _issuerDescription) public returns (bool _bool){\r\n       \r\n        issuers[ msg.sender ] = issuerIdentity({\r\nissuerType: _issuerType,\r\nissuerDescription: _issuerDescription,\r\n            active: true\r\n        });\r\n        return true;\r\n    }\r\n\r\n    \r\n    function registerUserIdentity( string _idNumber, string _idType) public returns (bool _bool){\r\n       \r\n        identities[ msg.sender ] = identity({\r\n            active: true,\r\n            idNumber: _idNumber,\r\n            idType: _idType\r\n        });\r\n        return true;\r\n    }\r\n}",
  "sourcePath": "C:\\Users\\paperspace\\Downloads\\Ranjini\\project_identity\\project_identity\\contracts\\Identity.sol",
  "compiler": {
    "name": "solc",
    "version": "0.4.24+commit.e67f0147.Emscripten.clang"
  },
  "schemaVersion": "2.0.1",
  "updatedAt": "2018-07-28T11:07:18.069Z"
}